{
  "contracts/SignatureRepository.sol": {
    "SignatureRepository": {
      "abi": [
        {
          "inputs": [],
          "name": "EmptySignatureData",
          "type": "error"
        },
        {
          "inputs": [],
          "name": "InvalidSignatureIndex",
          "type": "error"
        },
        {
          "inputs": [],
          "name": "InvalidStorageAddress",
          "type": "error"
        },
        {
          "anonymous": false,
          "inputs": [
            {
              "indexed": true,
              "internalType": "address",
              "name": "signer",
              "type": "address"
            },
            {
              "indexed": false,
              "internalType": "uint256",
              "name": "index",
              "type": "uint256"
            }
          ],
          "name": "NewSignature",
          "type": "event"
        },
        {
          "inputs": [
            {
              "internalType": "bytes[]",
              "name": "data",
              "type": "bytes[]"
            }
          ],
          "name": "addSignature",
          "outputs": [],
          "stateMutability": "nonpayable",
          "type": "function"
        },
        {
          "inputs": [
            {
              "internalType": "bytes[][]",
              "name": "data",
              "type": "bytes[][]"
            }
          ],
          "name": "addSignatures",
          "outputs": [],
          "stateMutability": "nonpayable",
          "type": "function"
        },
        {
          "inputs": [
            {
              "internalType": "address",
              "name": "signer",
              "type": "address"
            }
          ],
          "name": "getSignatureCount",
          "outputs": [
            {
              "internalType": "uint256",
              "name": "count",
              "type": "uint256"
            }
          ],
          "stateMutability": "view",
          "type": "function"
        },
        {
          "inputs": [
            {
              "internalType": "address",
              "name": "signer",
              "type": "address"
            },
            {
              "internalType": "uint256",
              "name": "index",
              "type": "uint256"
            }
          ],
          "name": "signaturePath",
          "outputs": [
            {
              "internalType": "string",
              "name": "",
              "type": "string"
            }
          ],
          "stateMutability": "view",
          "type": "function"
        },
        {
          "inputs": [
            {
              "internalType": "address",
              "name": "signer",
              "type": "address"
            },
            {
              "internalType": "uint256",
              "name": "index",
              "type": "uint256"
            },
            {
              "internalType": "string",
              "name": "color",
              "type": "string"
            },
            {
              "internalType": "string",
              "name": "width",
              "type": "string"
            }
          ],
          "name": "svg",
          "outputs": [
            {
              "internalType": "string",
              "name": "",
              "type": "string"
            }
          ],
          "stateMutability": "view",
          "type": "function"
        },
        {
          "inputs": [
            {
              "internalType": "address",
              "name": "signer",
              "type": "address"
            },
            {
              "internalType": "uint256",
              "name": "index",
              "type": "uint256"
            }
          ],
          "name": "svg",
          "outputs": [
            {
              "internalType": "string",
              "name": "",
              "type": "string"
            }
          ],
          "stateMutability": "view",
          "type": "function"
        },
        {
          "inputs": [
            {
              "internalType": "address",
              "name": "signer",
              "type": "address"
            },
            {
              "internalType": "uint256",
              "name": "index",
              "type": "uint256"
            }
          ],
          "name": "uri",
          "outputs": [
            {
              "internalType": "string",
              "name": "",
              "type": "string"
            }
          ],
          "stateMutability": "view",
          "type": "function"
        },
        {
          "inputs": [
            {
              "internalType": "address",
              "name": "signer",
              "type": "address"
            },
            {
              "internalType": "uint256",
              "name": "index",
              "type": "uint256"
            },
            {
              "internalType": "string",
              "name": "color",
              "type": "string"
            },
            {
              "internalType": "string",
              "name": "width",
              "type": "string"
            }
          ],
          "name": "uri",
          "outputs": [
            {
              "internalType": "string",
              "name": "",
              "type": "string"
            }
          ],
          "stateMutability": "view",
          "type": "function"
        }
      ],
      "evm": {
        "bytecode": {
          "linkReferences": {},
          "object": "608060405234801561001057600080fd5b50610f71806100206000396000f3fe608060405234801561001057600080fd5b50600436106100885760003560e01c806380046e2b1161005b57806380046e2b1461011557806383d3872a14610128578063bcbf328c1461013b578063c25a44d31461014e57600080fd5b806302bba8921461008d57806328205a93146100a25780636c7d13df146100cb5780637140c05014610102575b600080fd5b6100a061009b366004610989565b610161565b005b6100b56100b03660046109e7565b610191565b6040516100c29190610a35565b60405180910390f35b6100f46100d9366004610a68565b6001600160a01b031660009081526020819052604090205490565b6040519081526020016100c2565b6100a0610110366004610989565b6101cd565b6100b56101233660046109e7565b610279565b6100b5610136366004610b26565b610446565b6100b5610149366004610b26565b610480565b6100b561015c3660046109e7565b6104a0565b600081900361018357604051630f3f6c9b60e21b815260040160405180910390fd5b61018d828261051f565b5050565b60606101a56101a084846104a0565b6106ca565b6040516020016101b59190610ba4565b60405160208183030381529060405290505b92915050565b60008190036101ef57604051630f3f6c9b60e21b815260040160405180910390fd5b60005b818110156102745782828281811061020c5761020c610be9565b905060200281019061021e9190610bff565b905060000361024057604051630f3f6c9b60e21b815260040160405180910390fd5b61026c83838381811061025557610255610be9565b90506020028101906102679190610bff565b61051f565b6001016101f2565b505050565b6001600160a01b03821660009081526020819052604090205460609082106102cd576040517fbfb572b300000000000000000000000000000000000000000000000000000000815260040160405180910390fd5b6001600160a01b038316600090815260208190526040812080546060929190859081106102fc576102fc610be9565b600091825260208220015491505b8181101561043c576001600160a01b038616600090815260208190526040812080548790811061033c5761033c610be9565b90600052602060002001600001828154811061035a5761035a610be9565b6000918252602090912001546001600160a01b03169050806103a8576040517ff359d7f700000000000000000000000000000000000000000000000000000000815260040160405180910390fd5b6001600160a01b03871660009081526020819052604090208054859161041091899081106103d8576103d8610be9565b9060005260206000200160000184815481106103f6576103f6610be9565b6000918252602090912001546001600160a01b031661082a565b604051602001610421929190610c49565b60408051601f1981840301815291905293505060010161030a565b5090949350505050565b60606104576101a086868686610480565b6040516020016104679190610ba4565b6040516020818303038152906040529050949350505050565b6060828261048e8787610279565b60405160200161046793929190610c78565b606061051883836040518060400160405280600581526020017f626c61636b0000000000000000000000000000000000000000000000000000008152506040518060400160405280600381526020017f3470780000000000000000000000000000000000000000000000000000000000815250610480565b9392505050565b600081900361054157604051630f3f6c9b60e21b815260040160405180910390fd5b3360009081526020819052604081208054600181018255908252905b8281101561068f5783838281811061057757610577610be9565b90506020028101906105899190610dd4565b90506000036105ab57604051630f3f6c9b60e21b815260040160405180910390fd5b600061060e8585848181106105c2576105c2610be9565b90506020028101906105d49190610dd4565b8080601f01602080910402602001604051908101604052809392919081815260200183838082843760009201919091525061084b92505050565b3360009081526020819052604090208054919250908490811061063357610633610be9565b60009182526020808320909101805460018181018355918452919092200180546001600160a01b039093167fffffffffffffffffffffffff0000000000000000000000000000000000000000909316929092179091550161055d565b5060405181815233907ffb79a88b762f56bcd11bcc12554f81106e62770680055da0027dc8fe0694e96c9060200160405180910390a2505050565b606081516000036106e957505060408051602081019091526000815290565b6000604051806060016040528060408152602001610efc60409139905060006003845160026107189190610e31565b6107229190610e44565b61072d906004610e66565b67ffffffffffffffff81111561074557610745610a83565b6040519080825280601f01601f19166020018201604052801561076f576020820181803683370190505b50905060018201602082018586518701602081018051600082525b828410156107e5576003840193508351603f8160121c168701518653600186019550603f81600c1c168701518653600186019550603f8160061c168701518653600186019550603f811687015186535060018501945061078a565b905250508551600390066001811461080457600281146108175761081f565b603d6001830353603d600283035361081f565b603d60018303535b509195945050505050565b60606101c7826001610846816001600160a01b0384163b610e7d565b61091a565b6000808260405160200161085f9190610e90565b60405160208183030381529060405290506000816040516020016108839190610eb6565b60405160208183030381529060405290508051602082016000f092506001600160a01b038316610913576040517f08c379a000000000000000000000000000000000000000000000000000000000815260206004820152601160248201527f4445504c4f594d454e545f4641494c4544000000000000000000000000000000604482015260640160405180910390fd5b5050919050565b60408051603f8301601f19168101909152818152818360208301863c9392505050565b60008083601f84011261094f57600080fd5b50813567ffffffffffffffff81111561096757600080fd5b6020830191508360208260051b850101111561098257600080fd5b9250929050565b6000806020838503121561099c57600080fd5b823567ffffffffffffffff8111156109b357600080fd5b6109bf8582860161093d565b90969095509350505050565b80356001600160a01b03811681146109e257600080fd5b919050565b600080604083850312156109fa57600080fd5b610a03836109cb565b946020939093013593505050565b60005b83811015610a2c578181015183820152602001610a14565b50506000910152565b6020815260008251806020840152610a54816040850160208701610a11565b601f01601f19169190910160400192915050565b600060208284031215610a7a57600080fd5b610518826109cb565b634e487b7160e01b600052604160045260246000fd5b600082601f830112610aaa57600080fd5b813567ffffffffffffffff80821115610ac557610ac5610a83565b604051601f8301601f19908116603f01168101908282118183101715610aed57610aed610a83565b81604052838152866020858801011115610b0657600080fd5b836020870160208301376000602085830101528094505050505092915050565b60008060008060808587031215610b3c57600080fd5b610b45856109cb565b935060208501359250604085013567ffffffffffffffff80821115610b6957600080fd5b610b7588838901610a99565b93506060870135915080821115610b8b57600080fd5b50610b9887828801610a99565b91505092959194509250565b7f646174613a696d6167652f7376672b786d6c3b6261736536342c000000000000815260008251610bdc81601a850160208701610a11565b91909101601a0192915050565b634e487b7160e01b600052603260045260246000fd5b6000808335601e19843603018112610c1657600080fd5b83018035915067ffffffffffffffff821115610c3157600080fd5b6020019150600581901b360382131561098257600080fd5b60008351610c5b818460208801610a11565b835190830190610c6f818360208801610a11565b01949350505050565b7f3c7376672076696577426f783d2230203020353132203531322220786d6c6e7381527f3d22687474703a2f2f7777772e77332e6f72672f323030302f737667223e3c7060208201527f617468207374726f6b653d220000000000000000000000000000000000000000604082015260008451610cfc81604c850160208901610a11565b7f22207374726f6b652d77696474683d2200000000000000000000000000000000604c918401918201528451610d3981605c840160208901610a11565b7f22207374726f6b652d6c696e656361703d22726f756e64222066696c6c3d226e605c92909101918201527f6f6e652220643d22000000000000000000000000000000000000000000000000607c8201528351610d9d816084840160208801610a11565b7f222f3e3c2f7376673e000000000000000000000000000000000000000000000060849290910191820152608d0195945050505050565b6000808335601e19843603018112610deb57600080fd5b83018035915067ffffffffffffffff821115610e0657600080fd5b60200191503681900382131561098257600080fd5b634e487b7160e01b600052601160045260246000fd5b808201808211156101c7576101c7610e1b565b600082610e6157634e487b7160e01b600052601260045260246000fd5b500490565b80820281158282048414176101c7576101c7610e1b565b818103818111156101c7576101c7610e1b565b6000815260008251610ea9816001850160208701610a11565b9190910160010192915050565b7f600b5981380380925939f3000000000000000000000000000000000000000000815260008251610eee81600b850160208701610a11565b91909101600b019291505056fe4142434445464748494a4b4c4d4e4f505152535455565758595a6162636465666768696a6b6c6d6e6f707172737475767778797a303132333435363738392b2fa2646970667358221220bcd98f2629b14cf328a45e3ec13731c9f3c690fc97036ab401fa8d787b84d3cf64736f6c63430008180033",
          "opcodes": "PUSH1 0x80 PUSH1 0x40 MSTORE CALLVALUE DUP1 ISZERO PUSH2 0x10 JUMPI PUSH1 0x0 DUP1 REVERT JUMPDEST POP PUSH2 0xF71 DUP1 PUSH2 0x20 PUSH1 0x0 CODECOPY PUSH1 0x0 RETURN INVALID PUSH1 0x80 PUSH1 0x40 MSTORE CALLVALUE DUP1 ISZERO PUSH2 0x10 JUMPI PUSH1 0x0 DUP1 REVERT JUMPDEST POP PUSH1 0x4 CALLDATASIZE LT PUSH2 0x88 JUMPI PUSH1 0x0 CALLDATALOAD PUSH1 0xE0 SHR DUP1 PUSH4 0x80046E2B GT PUSH2 0x5B JUMPI DUP1 PUSH4 0x80046E2B EQ PUSH2 0x115 JUMPI DUP1 PUSH4 0x83D3872A EQ PUSH2 0x128 JUMPI DUP1 PUSH4 0xBCBF328C EQ PUSH2 0x13B JUMPI DUP1 PUSH4 0xC25A44D3 EQ PUSH2 0x14E JUMPI PUSH1 0x0 DUP1 REVERT JUMPDEST DUP1 PUSH4 0x2BBA892 EQ PUSH2 0x8D JUMPI DUP1 PUSH4 0x28205A93 EQ PUSH2 0xA2 JUMPI DUP1 PUSH4 0x6C7D13DF EQ PUSH2 0xCB JUMPI DUP1 PUSH4 0x7140C050 EQ PUSH2 0x102 JUMPI JUMPDEST PUSH1 0x0 DUP1 REVERT JUMPDEST PUSH2 0xA0 PUSH2 0x9B CALLDATASIZE PUSH1 0x4 PUSH2 0x989 JUMP JUMPDEST PUSH2 0x161 JUMP JUMPDEST STOP JUMPDEST PUSH2 0xB5 PUSH2 0xB0 CALLDATASIZE PUSH1 0x4 PUSH2 0x9E7 JUMP JUMPDEST PUSH2 0x191 JUMP JUMPDEST PUSH1 0x40 MLOAD PUSH2 0xC2 SWAP2 SWAP1 PUSH2 0xA35 JUMP JUMPDEST PUSH1 0x40 MLOAD DUP1 SWAP2 SUB SWAP1 RETURN JUMPDEST PUSH2 0xF4 PUSH2 0xD9 CALLDATASIZE PUSH1 0x4 PUSH2 0xA68 JUMP JUMPDEST PUSH1 0x1 PUSH1 0x1 PUSH1 0xA0 SHL SUB AND PUSH1 0x0 SWAP1 DUP2 MSTORE PUSH1 0x20 DUP2 SWAP1 MSTORE PUSH1 0x40 SWAP1 KECCAK256 SLOAD SWAP1 JUMP JUMPDEST PUSH1 0x40 MLOAD SWAP1 DUP2 MSTORE PUSH1 0x20 ADD PUSH2 0xC2 JUMP JUMPDEST PUSH2 0xA0 PUSH2 0x110 CALLDATASIZE PUSH1 0x4 PUSH2 0x989 JUMP JUMPDEST PUSH2 0x1CD JUMP JUMPDEST PUSH2 0xB5 PUSH2 0x123 CALLDATASIZE PUSH1 0x4 PUSH2 0x9E7 JUMP JUMPDEST PUSH2 0x279 JUMP JUMPDEST PUSH2 0xB5 PUSH2 0x136 CALLDATASIZE PUSH1 0x4 PUSH2 0xB26 JUMP JUMPDEST PUSH2 0x446 JUMP JUMPDEST PUSH2 0xB5 PUSH2 0x149 CALLDATASIZE PUSH1 0x4 PUSH2 0xB26 JUMP JUMPDEST PUSH2 0x480 JUMP JUMPDEST PUSH2 0xB5 PUSH2 0x15C CALLDATASIZE PUSH1 0x4 PUSH2 0x9E7 JUMP JUMPDEST PUSH2 0x4A0 JUMP JUMPDEST PUSH1 0x0 DUP2 SWAP1 SUB PUSH2 0x183 JUMPI PUSH1 0x40 MLOAD PUSH4 0xF3F6C9B PUSH1 0xE2 SHL DUP2 MSTORE PUSH1 0x4 ADD PUSH1 0x40 MLOAD DUP1 SWAP2 SUB SWAP1 REVERT JUMPDEST PUSH2 0x18D DUP3 DUP3 PUSH2 0x51F JUMP JUMPDEST POP POP JUMP JUMPDEST PUSH1 0x60 PUSH2 0x1A5 PUSH2 0x1A0 DUP5 DUP5 PUSH2 0x4A0 JUMP JUMPDEST PUSH2 0x6CA JUMP JUMPDEST PUSH1 0x40 MLOAD PUSH1 0x20 ADD PUSH2 0x1B5 SWAP2 SWAP1 PUSH2 0xBA4 JUMP JUMPDEST PUSH1 0x40 MLOAD PUSH1 0x20 DUP2 DUP4 SUB SUB DUP2 MSTORE SWAP1 PUSH1 0x40 MSTORE SWAP1 POP JUMPDEST SWAP3 SWAP2 POP POP JUMP JUMPDEST PUSH1 0x0 DUP2 SWAP1 SUB PUSH2 0x1EF JUMPI PUSH1 0x40 MLOAD PUSH4 0xF3F6C9B PUSH1 0xE2 SHL DUP2 MSTORE PUSH1 0x4 ADD PUSH1 0x40 MLOAD DUP1 SWAP2 SUB SWAP1 REVERT JUMPDEST PUSH1 0x0 JUMPDEST DUP2 DUP2 LT ISZERO PUSH2 0x274 JUMPI DUP3 DUP3 DUP3 DUP2 DUP2 LT PUSH2 0x20C JUMPI PUSH2 0x20C PUSH2 0xBE9 JUMP JUMPDEST SWAP1 POP PUSH1 0x20 MUL DUP2 ADD SWAP1 PUSH2 0x21E SWAP2 SWAP1 PUSH2 0xBFF JUMP JUMPDEST SWAP1 POP PUSH1 0x0 SUB PUSH2 0x240 JUMPI PUSH1 0x40 MLOAD PUSH4 0xF3F6C9B PUSH1 0xE2 SHL DUP2 MSTORE PUSH1 0x4 ADD PUSH1 0x40 MLOAD DUP1 SWAP2 SUB SWAP1 REVERT JUMPDEST PUSH2 0x26C DUP4 DUP4 DUP4 DUP2 DUP2 LT PUSH2 0x255 JUMPI PUSH2 0x255 PUSH2 0xBE9 JUMP JUMPDEST SWAP1 POP PUSH1 0x20 MUL DUP2 ADD SWAP1 PUSH2 0x267 SWAP2 SWAP1 PUSH2 0xBFF JUMP JUMPDEST PUSH2 0x51F JUMP JUMPDEST PUSH1 0x1 ADD PUSH2 0x1F2 JUMP JUMPDEST POP POP POP JUMP JUMPDEST PUSH1 0x1 PUSH1 0x1 PUSH1 0xA0 SHL SUB DUP3 AND PUSH1 0x0 SWAP1 DUP2 MSTORE PUSH1 0x20 DUP2 SWAP1 MSTORE PUSH1 0x40 SWAP1 KECCAK256 SLOAD PUSH1 0x60 SWAP1 DUP3 LT PUSH2 0x2CD JUMPI PUSH1 0x40 MLOAD PUSH32 0xBFB572B300000000000000000000000000000000000000000000000000000000 DUP2 MSTORE PUSH1 0x4 ADD PUSH1 0x40 MLOAD DUP1 SWAP2 SUB SWAP1 REVERT JUMPDEST PUSH1 0x1 PUSH1 0x1 PUSH1 0xA0 SHL SUB DUP4 AND PUSH1 0x0 SWAP1 DUP2 MSTORE PUSH1 0x20 DUP2 SWAP1 MSTORE PUSH1 0x40 DUP2 KECCAK256 DUP1 SLOAD PUSH1 0x60 SWAP3 SWAP2 SWAP1 DUP6 SWAP1 DUP2 LT PUSH2 0x2FC JUMPI PUSH2 0x2FC PUSH2 0xBE9 JUMP JUMPDEST PUSH1 0x0 SWAP2 DUP3 MSTORE PUSH1 0x20 DUP3 KECCAK256 ADD SLOAD SWAP2 POP JUMPDEST DUP2 DUP2 LT ISZERO PUSH2 0x43C JUMPI PUSH1 0x1 PUSH1 0x1 PUSH1 0xA0 SHL SUB DUP7 AND PUSH1 0x0 SWAP1 DUP2 MSTORE PUSH1 0x20 DUP2 SWAP1 MSTORE PUSH1 0x40 DUP2 KECCAK256 DUP1 SLOAD DUP8 SWAP1 DUP2 LT PUSH2 0x33C JUMPI PUSH2 0x33C PUSH2 0xBE9 JUMP JUMPDEST SWAP1 PUSH1 0x0 MSTORE PUSH1 0x20 PUSH1 0x0 KECCAK256 ADD PUSH1 0x0 ADD DUP3 DUP2 SLOAD DUP2 LT PUSH2 0x35A JUMPI PUSH2 0x35A PUSH2 0xBE9 JUMP JUMPDEST PUSH1 0x0 SWAP2 DUP3 MSTORE PUSH1 0x20 SWAP1 SWAP2 KECCAK256 ADD SLOAD PUSH1 0x1 PUSH1 0x1 PUSH1 0xA0 SHL SUB AND SWAP1 POP DUP1 PUSH2 0x3A8 JUMPI PUSH1 0x40 MLOAD PUSH32 0xF359D7F700000000000000000000000000000000000000000000000000000000 DUP2 MSTORE PUSH1 0x4 ADD PUSH1 0x40 MLOAD DUP1 SWAP2 SUB SWAP1 REVERT JUMPDEST PUSH1 0x1 PUSH1 0x1 PUSH1 0xA0 SHL SUB DUP8 AND PUSH1 0x0 SWAP1 DUP2 MSTORE PUSH1 0x20 DUP2 SWAP1 MSTORE PUSH1 0x40 SWAP1 KECCAK256 DUP1 SLOAD DUP6 SWAP2 PUSH2 0x410 SWAP2 DUP10 SWAP1 DUP2 LT PUSH2 0x3D8 JUMPI PUSH2 0x3D8 PUSH2 0xBE9 JUMP JUMPDEST SWAP1 PUSH1 0x0 MSTORE PUSH1 0x20 PUSH1 0x0 KECCAK256 ADD PUSH1 0x0 ADD DUP5 DUP2 SLOAD DUP2 LT PUSH2 0x3F6 JUMPI PUSH2 0x3F6 PUSH2 0xBE9 JUMP JUMPDEST PUSH1 0x0 SWAP2 DUP3 MSTORE PUSH1 0x20 SWAP1 SWAP2 KECCAK256 ADD SLOAD PUSH1 0x1 PUSH1 0x1 PUSH1 0xA0 SHL SUB AND PUSH2 0x82A JUMP JUMPDEST PUSH1 0x40 MLOAD PUSH1 0x20 ADD PUSH2 0x421 SWAP3 SWAP2 SWAP1 PUSH2 0xC49 JUMP JUMPDEST PUSH1 0x40 DUP1 MLOAD PUSH1 0x1F NOT DUP2 DUP5 SUB ADD DUP2 MSTORE SWAP2 SWAP1 MSTORE SWAP4 POP POP PUSH1 0x1 ADD PUSH2 0x30A JUMP JUMPDEST POP SWAP1 SWAP5 SWAP4 POP POP POP POP JUMP JUMPDEST PUSH1 0x60 PUSH2 0x457 PUSH2 0x1A0 DUP7 DUP7 DUP7 DUP7 PUSH2 0x480 JUMP JUMPDEST PUSH1 0x40 MLOAD PUSH1 0x20 ADD PUSH2 0x467 SWAP2 SWAP1 PUSH2 0xBA4 JUMP JUMPDEST PUSH1 0x40 MLOAD PUSH1 0x20 DUP2 DUP4 SUB SUB DUP2 MSTORE SWAP1 PUSH1 0x40 MSTORE SWAP1 POP SWAP5 SWAP4 POP POP POP POP JUMP JUMPDEST PUSH1 0x60 DUP3 DUP3 PUSH2 0x48E DUP8 DUP8 PUSH2 0x279 JUMP JUMPDEST PUSH1 0x40 MLOAD PUSH1 0x20 ADD PUSH2 0x467 SWAP4 SWAP3 SWAP2 SWAP1 PUSH2 0xC78 JUMP JUMPDEST PUSH1 0x60 PUSH2 0x518 DUP4 DUP4 PUSH1 0x40 MLOAD DUP1 PUSH1 0x40 ADD PUSH1 0x40 MSTORE DUP1 PUSH1 0x5 DUP2 MSTORE PUSH1 0x20 ADD PUSH32 0x626C61636B000000000000000000000000000000000000000000000000000000 DUP2 MSTORE POP PUSH1 0x40 MLOAD DUP1 PUSH1 0x40 ADD PUSH1 0x40 MSTORE DUP1 PUSH1 0x3 DUP2 MSTORE PUSH1 0x20 ADD PUSH32 0x3470780000000000000000000000000000000000000000000000000000000000 DUP2 MSTORE POP PUSH2 0x480 JUMP JUMPDEST SWAP4 SWAP3 POP POP POP JUMP JUMPDEST PUSH1 0x0 DUP2 SWAP1 SUB PUSH2 0x541 JUMPI PUSH1 0x40 MLOAD PUSH4 0xF3F6C9B PUSH1 0xE2 SHL DUP2 MSTORE PUSH1 0x4 ADD PUSH1 0x40 MLOAD DUP1 SWAP2 SUB SWAP1 REVERT JUMPDEST CALLER PUSH1 0x0 SWAP1 DUP2 MSTORE PUSH1 0x20 DUP2 SWAP1 MSTORE PUSH1 0x40 DUP2 KECCAK256 DUP1 SLOAD PUSH1 0x1 DUP2 ADD DUP3 SSTORE SWAP1 DUP3 MSTORE SWAP1 JUMPDEST DUP3 DUP2 LT ISZERO PUSH2 0x68F JUMPI DUP4 DUP4 DUP3 DUP2 DUP2 LT PUSH2 0x577 JUMPI PUSH2 0x577 PUSH2 0xBE9 JUMP JUMPDEST SWAP1 POP PUSH1 0x20 MUL DUP2 ADD SWAP1 PUSH2 0x589 SWAP2 SWAP1 PUSH2 0xDD4 JUMP JUMPDEST SWAP1 POP PUSH1 0x0 SUB PUSH2 0x5AB JUMPI PUSH1 0x40 MLOAD PUSH4 0xF3F6C9B PUSH1 0xE2 SHL DUP2 MSTORE PUSH1 0x4 ADD PUSH1 0x40 MLOAD DUP1 SWAP2 SUB SWAP1 REVERT JUMPDEST PUSH1 0x0 PUSH2 0x60E DUP6 DUP6 DUP5 DUP2 DUP2 LT PUSH2 0x5C2 JUMPI PUSH2 0x5C2 PUSH2 0xBE9 JUMP JUMPDEST SWAP1 POP PUSH1 0x20 MUL DUP2 ADD SWAP1 PUSH2 0x5D4 SWAP2 SWAP1 PUSH2 0xDD4 JUMP JUMPDEST DUP1 DUP1 PUSH1 0x1F ADD PUSH1 0x20 DUP1 SWAP2 DIV MUL PUSH1 0x20 ADD PUSH1 0x40 MLOAD SWAP1 DUP2 ADD PUSH1 0x40 MSTORE DUP1 SWAP4 SWAP3 SWAP2 SWAP1 DUP2 DUP2 MSTORE PUSH1 0x20 ADD DUP4 DUP4 DUP1 DUP3 DUP5 CALLDATACOPY PUSH1 0x0 SWAP3 ADD SWAP2 SWAP1 SWAP2 MSTORE POP PUSH2 0x84B SWAP3 POP POP POP JUMP JUMPDEST CALLER PUSH1 0x0 SWAP1 DUP2 MSTORE PUSH1 0x20 DUP2 SWAP1 MSTORE PUSH1 0x40 SWAP1 KECCAK256 DUP1 SLOAD SWAP2 SWAP3 POP SWAP1 DUP5 SWAP1 DUP2 LT PUSH2 0x633 JUMPI PUSH2 0x633 PUSH2 0xBE9 JUMP JUMPDEST PUSH1 0x0 SWAP2 DUP3 MSTORE PUSH1 0x20 DUP1 DUP4 KECCAK256 SWAP1 SWAP2 ADD DUP1 SLOAD PUSH1 0x1 DUP2 DUP2 ADD DUP4 SSTORE SWAP2 DUP5 MSTORE SWAP2 SWAP1 SWAP3 KECCAK256 ADD DUP1 SLOAD PUSH1 0x1 PUSH1 0x1 PUSH1 0xA0 SHL SUB SWAP1 SWAP4 AND PUSH32 0xFFFFFFFFFFFFFFFFFFFFFFFF0000000000000000000000000000000000000000 SWAP1 SWAP4 AND SWAP3 SWAP1 SWAP3 OR SWAP1 SWAP2 SSTORE ADD PUSH2 0x55D JUMP JUMPDEST POP PUSH1 0x40 MLOAD DUP2 DUP2 MSTORE CALLER SWAP1 PUSH32 0xFB79A88B762F56BCD11BCC12554F81106E62770680055DA0027DC8FE0694E96C SWAP1 PUSH1 0x20 ADD PUSH1 0x40 MLOAD DUP1 SWAP2 SUB SWAP1 LOG2 POP POP POP JUMP JUMPDEST PUSH1 0x60 DUP2 MLOAD PUSH1 0x0 SUB PUSH2 0x6E9 JUMPI POP POP PUSH1 0x40 DUP1 MLOAD PUSH1 0x20 DUP2 ADD SWAP1 SWAP2 MSTORE PUSH1 0x0 DUP2 MSTORE SWAP1 JUMP JUMPDEST PUSH1 0x0 PUSH1 0x40 MLOAD DUP1 PUSH1 0x60 ADD PUSH1 0x40 MSTORE DUP1 PUSH1 0x40 DUP2 MSTORE PUSH1 0x20 ADD PUSH2 0xEFC PUSH1 0x40 SWAP2 CODECOPY SWAP1 POP PUSH1 0x0 PUSH1 0x3 DUP5 MLOAD PUSH1 0x2 PUSH2 0x718 SWAP2 SWAP1 PUSH2 0xE31 JUMP JUMPDEST PUSH2 0x722 SWAP2 SWAP1 PUSH2 0xE44 JUMP JUMPDEST PUSH2 0x72D SWAP1 PUSH1 0x4 PUSH2 0xE66 JUMP JUMPDEST PUSH8 0xFFFFFFFFFFFFFFFF DUP2 GT ISZERO PUSH2 0x745 JUMPI PUSH2 0x745 PUSH2 0xA83 JUMP JUMPDEST PUSH1 0x40 MLOAD SWAP1 DUP1 DUP3 MSTORE DUP1 PUSH1 0x1F ADD PUSH1 0x1F NOT AND PUSH1 0x20 ADD DUP3 ADD PUSH1 0x40 MSTORE DUP1 ISZERO PUSH2 0x76F JUMPI PUSH1 0x20 DUP3 ADD DUP2 DUP1 CALLDATASIZE DUP4 CALLDATACOPY ADD SWAP1 POP JUMPDEST POP SWAP1 POP PUSH1 0x1 DUP3 ADD PUSH1 0x20 DUP3 ADD DUP6 DUP7 MLOAD DUP8 ADD PUSH1 0x20 DUP2 ADD DUP1 MLOAD PUSH1 0x0 DUP3 MSTORE JUMPDEST DUP3 DUP5 LT ISZERO PUSH2 0x7E5 JUMPI PUSH1 0x3 DUP5 ADD SWAP4 POP DUP4 MLOAD PUSH1 0x3F DUP2 PUSH1 0x12 SHR AND DUP8 ADD MLOAD DUP7 MSTORE8 PUSH1 0x1 DUP7 ADD SWAP6 POP PUSH1 0x3F DUP2 PUSH1 0xC SHR AND DUP8 ADD MLOAD DUP7 MSTORE8 PUSH1 0x1 DUP7 ADD SWAP6 POP PUSH1 0x3F DUP2 PUSH1 0x6 SHR AND DUP8 ADD MLOAD DUP7 MSTORE8 PUSH1 0x1 DUP7 ADD SWAP6 POP PUSH1 0x3F DUP2 AND DUP8 ADD MLOAD DUP7 MSTORE8 POP PUSH1 0x1 DUP6 ADD SWAP5 POP PUSH2 0x78A JUMP JUMPDEST SWAP1 MSTORE POP POP DUP6 MLOAD PUSH1 0x3 SWAP1 MOD PUSH1 0x1 DUP2 EQ PUSH2 0x804 JUMPI PUSH1 0x2 DUP2 EQ PUSH2 0x817 JUMPI PUSH2 0x81F JUMP JUMPDEST PUSH1 0x3D PUSH1 0x1 DUP4 SUB MSTORE8 PUSH1 0x3D PUSH1 0x2 DUP4 SUB MSTORE8 PUSH2 0x81F JUMP JUMPDEST PUSH1 0x3D PUSH1 0x1 DUP4 SUB MSTORE8 JUMPDEST POP SWAP2 SWAP6 SWAP5 POP POP POP POP POP JUMP JUMPDEST PUSH1 0x60 PUSH2 0x1C7 DUP3 PUSH1 0x1 PUSH2 0x846 DUP2 PUSH1 0x1 PUSH1 0x1 PUSH1 0xA0 SHL SUB DUP5 AND EXTCODESIZE PUSH2 0xE7D JUMP JUMPDEST PUSH2 0x91A JUMP JUMPDEST PUSH1 0x0 DUP1 DUP3 PUSH1 0x40 MLOAD PUSH1 0x20 ADD PUSH2 0x85F SWAP2 SWAP1 PUSH2 0xE90 JUMP JUMPDEST PUSH1 0x40 MLOAD PUSH1 0x20 DUP2 DUP4 SUB SUB DUP2 MSTORE SWAP1 PUSH1 0x40 MSTORE SWAP1 POP PUSH1 0x0 DUP2 PUSH1 0x40 MLOAD PUSH1 0x20 ADD PUSH2 0x883 SWAP2 SWAP1 PUSH2 0xEB6 JUMP JUMPDEST PUSH1 0x40 MLOAD PUSH1 0x20 DUP2 DUP4 SUB SUB DUP2 MSTORE SWAP1 PUSH1 0x40 MSTORE SWAP1 POP DUP1 MLOAD PUSH1 0x20 DUP3 ADD PUSH1 0x0 CREATE SWAP3 POP PUSH1 0x1 PUSH1 0x1 PUSH1 0xA0 SHL SUB DUP4 AND PUSH2 0x913 JUMPI PUSH1 0x40 MLOAD PUSH32 0x8C379A000000000000000000000000000000000000000000000000000000000 DUP2 MSTORE PUSH1 0x20 PUSH1 0x4 DUP3 ADD MSTORE PUSH1 0x11 PUSH1 0x24 DUP3 ADD MSTORE PUSH32 0x4445504C4F594D454E545F4641494C4544000000000000000000000000000000 PUSH1 0x44 DUP3 ADD MSTORE PUSH1 0x64 ADD PUSH1 0x40 MLOAD DUP1 SWAP2 SUB SWAP1 REVERT JUMPDEST POP POP SWAP2 SWAP1 POP JUMP JUMPDEST PUSH1 0x40 DUP1 MLOAD PUSH1 0x3F DUP4 ADD PUSH1 0x1F NOT AND DUP2 ADD SWAP1 SWAP2 MSTORE DUP2 DUP2 MSTORE DUP2 DUP4 PUSH1 0x20 DUP4 ADD DUP7 EXTCODECOPY SWAP4 SWAP3 POP POP POP JUMP JUMPDEST PUSH1 0x0 DUP1 DUP4 PUSH1 0x1F DUP5 ADD SLT PUSH2 0x94F JUMPI PUSH1 0x0 DUP1 REVERT JUMPDEST POP DUP2 CALLDATALOAD PUSH8 0xFFFFFFFFFFFFFFFF DUP2 GT ISZERO PUSH2 0x967 JUMPI PUSH1 0x0 DUP1 REVERT JUMPDEST PUSH1 0x20 DUP4 ADD SWAP2 POP DUP4 PUSH1 0x20 DUP3 PUSH1 0x5 SHL DUP6 ADD ADD GT ISZERO PUSH2 0x982 JUMPI PUSH1 0x0 DUP1 REVERT JUMPDEST SWAP3 POP SWAP3 SWAP1 POP JUMP JUMPDEST PUSH1 0x0 DUP1 PUSH1 0x20 DUP4 DUP6 SUB SLT ISZERO PUSH2 0x99C JUMPI PUSH1 0x0 DUP1 REVERT JUMPDEST DUP3 CALLDATALOAD PUSH8 0xFFFFFFFFFFFFFFFF DUP2 GT ISZERO PUSH2 0x9B3 JUMPI PUSH1 0x0 DUP1 REVERT JUMPDEST PUSH2 0x9BF DUP6 DUP3 DUP7 ADD PUSH2 0x93D JUMP JUMPDEST SWAP1 SWAP7 SWAP1 SWAP6 POP SWAP4 POP POP POP POP JUMP JUMPDEST DUP1 CALLDATALOAD PUSH1 0x1 PUSH1 0x1 PUSH1 0xA0 SHL SUB DUP2 AND DUP2 EQ PUSH2 0x9E2 JUMPI PUSH1 0x0 DUP1 REVERT JUMPDEST SWAP2 SWAP1 POP JUMP JUMPDEST PUSH1 0x0 DUP1 PUSH1 0x40 DUP4 DUP6 SUB SLT ISZERO PUSH2 0x9FA JUMPI PUSH1 0x0 DUP1 REVERT JUMPDEST PUSH2 0xA03 DUP4 PUSH2 0x9CB JUMP JUMPDEST SWAP5 PUSH1 0x20 SWAP4 SWAP1 SWAP4 ADD CALLDATALOAD SWAP4 POP POP POP JUMP JUMPDEST PUSH1 0x0 JUMPDEST DUP4 DUP2 LT ISZERO PUSH2 0xA2C JUMPI DUP2 DUP2 ADD MLOAD DUP4 DUP3 ADD MSTORE PUSH1 0x20 ADD PUSH2 0xA14 JUMP JUMPDEST POP POP PUSH1 0x0 SWAP2 ADD MSTORE JUMP JUMPDEST PUSH1 0x20 DUP2 MSTORE PUSH1 0x0 DUP3 MLOAD DUP1 PUSH1 0x20 DUP5 ADD MSTORE PUSH2 0xA54 DUP2 PUSH1 0x40 DUP6 ADD PUSH1 0x20 DUP8 ADD PUSH2 0xA11 JUMP JUMPDEST PUSH1 0x1F ADD PUSH1 0x1F NOT AND SWAP2 SWAP1 SWAP2 ADD PUSH1 0x40 ADD SWAP3 SWAP2 POP POP JUMP JUMPDEST PUSH1 0x0 PUSH1 0x20 DUP3 DUP5 SUB SLT ISZERO PUSH2 0xA7A JUMPI PUSH1 0x0 DUP1 REVERT JUMPDEST PUSH2 0x518 DUP3 PUSH2 0x9CB JUMP JUMPDEST PUSH4 0x4E487B71 PUSH1 0xE0 SHL PUSH1 0x0 MSTORE PUSH1 0x41 PUSH1 0x4 MSTORE PUSH1 0x24 PUSH1 0x0 REVERT JUMPDEST PUSH1 0x0 DUP3 PUSH1 0x1F DUP4 ADD SLT PUSH2 0xAAA JUMPI PUSH1 0x0 DUP1 REVERT JUMPDEST DUP2 CALLDATALOAD PUSH8 0xFFFFFFFFFFFFFFFF DUP1 DUP3 GT ISZERO PUSH2 0xAC5 JUMPI PUSH2 0xAC5 PUSH2 0xA83 JUMP JUMPDEST PUSH1 0x40 MLOAD PUSH1 0x1F DUP4 ADD PUSH1 0x1F NOT SWAP1 DUP2 AND PUSH1 0x3F ADD AND DUP2 ADD SWAP1 DUP3 DUP3 GT DUP2 DUP4 LT OR ISZERO PUSH2 0xAED JUMPI PUSH2 0xAED PUSH2 0xA83 JUMP JUMPDEST DUP2 PUSH1 0x40 MSTORE DUP4 DUP2 MSTORE DUP7 PUSH1 0x20 DUP6 DUP9 ADD ADD GT ISZERO PUSH2 0xB06 JUMPI PUSH1 0x0 DUP1 REVERT JUMPDEST DUP4 PUSH1 0x20 DUP8 ADD PUSH1 0x20 DUP4 ADD CALLDATACOPY PUSH1 0x0 PUSH1 0x20 DUP6 DUP4 ADD ADD MSTORE DUP1 SWAP5 POP POP POP POP POP SWAP3 SWAP2 POP POP JUMP JUMPDEST PUSH1 0x0 DUP1 PUSH1 0x0 DUP1 PUSH1 0x80 DUP6 DUP8 SUB SLT ISZERO PUSH2 0xB3C JUMPI PUSH1 0x0 DUP1 REVERT JUMPDEST PUSH2 0xB45 DUP6 PUSH2 0x9CB JUMP JUMPDEST SWAP4 POP PUSH1 0x20 DUP6 ADD CALLDATALOAD SWAP3 POP PUSH1 0x40 DUP6 ADD CALLDATALOAD PUSH8 0xFFFFFFFFFFFFFFFF DUP1 DUP3 GT ISZERO PUSH2 0xB69 JUMPI PUSH1 0x0 DUP1 REVERT JUMPDEST PUSH2 0xB75 DUP9 DUP4 DUP10 ADD PUSH2 0xA99 JUMP JUMPDEST SWAP4 POP PUSH1 0x60 DUP8 ADD CALLDATALOAD SWAP2 POP DUP1 DUP3 GT ISZERO PUSH2 0xB8B JUMPI PUSH1 0x0 DUP1 REVERT JUMPDEST POP PUSH2 0xB98 DUP8 DUP3 DUP9 ADD PUSH2 0xA99 JUMP JUMPDEST SWAP2 POP POP SWAP3 SWAP6 SWAP2 SWAP5 POP SWAP3 POP JUMP JUMPDEST PUSH32 0x646174613A696D6167652F7376672B786D6C3B6261736536342C000000000000 DUP2 MSTORE PUSH1 0x0 DUP3 MLOAD PUSH2 0xBDC DUP2 PUSH1 0x1A DUP6 ADD PUSH1 0x20 DUP8 ADD PUSH2 0xA11 JUMP JUMPDEST SWAP2 SWAP1 SWAP2 ADD PUSH1 0x1A ADD SWAP3 SWAP2 POP POP JUMP JUMPDEST PUSH4 0x4E487B71 PUSH1 0xE0 SHL PUSH1 0x0 MSTORE PUSH1 0x32 PUSH1 0x4 MSTORE PUSH1 0x24 PUSH1 0x0 REVERT JUMPDEST PUSH1 0x0 DUP1 DUP4 CALLDATALOAD PUSH1 0x1E NOT DUP5 CALLDATASIZE SUB ADD DUP2 SLT PUSH2 0xC16 JUMPI PUSH1 0x0 DUP1 REVERT JUMPDEST DUP4 ADD DUP1 CALLDATALOAD SWAP2 POP PUSH8 0xFFFFFFFFFFFFFFFF DUP3 GT ISZERO PUSH2 0xC31 JUMPI PUSH1 0x0 DUP1 REVERT JUMPDEST PUSH1 0x20 ADD SWAP2 POP PUSH1 0x5 DUP2 SWAP1 SHL CALLDATASIZE SUB DUP3 SGT ISZERO PUSH2 0x982 JUMPI PUSH1 0x0 DUP1 REVERT JUMPDEST PUSH1 0x0 DUP4 MLOAD PUSH2 0xC5B DUP2 DUP5 PUSH1 0x20 DUP9 ADD PUSH2 0xA11 JUMP JUMPDEST DUP4 MLOAD SWAP1 DUP4 ADD SWAP1 PUSH2 0xC6F DUP2 DUP4 PUSH1 0x20 DUP9 ADD PUSH2 0xA11 JUMP JUMPDEST ADD SWAP5 SWAP4 POP POP POP POP JUMP JUMPDEST PUSH32 0x3C7376672076696577426F783D2230203020353132203531322220786D6C6E73 DUP2 MSTORE PUSH32 0x3D22687474703A2F2F7777772E77332E6F72672F323030302F737667223E3C70 PUSH1 0x20 DUP3 ADD MSTORE PUSH32 0x617468207374726F6B653D220000000000000000000000000000000000000000 PUSH1 0x40 DUP3 ADD MSTORE PUSH1 0x0 DUP5 MLOAD PUSH2 0xCFC DUP2 PUSH1 0x4C DUP6 ADD PUSH1 0x20 DUP10 ADD PUSH2 0xA11 JUMP JUMPDEST PUSH32 0x22207374726F6B652D77696474683D2200000000000000000000000000000000 PUSH1 0x4C SWAP2 DUP5 ADD SWAP2 DUP3 ADD MSTORE DUP5 MLOAD PUSH2 0xD39 DUP2 PUSH1 0x5C DUP5 ADD PUSH1 0x20 DUP10 ADD PUSH2 0xA11 JUMP JUMPDEST PUSH32 0x22207374726F6B652D6C696E656361703D22726F756E64222066696C6C3D226E PUSH1 0x5C SWAP3 SWAP1 SWAP2 ADD SWAP2 DUP3 ADD MSTORE PUSH32 0x6F6E652220643D22000000000000000000000000000000000000000000000000 PUSH1 0x7C DUP3 ADD MSTORE DUP4 MLOAD PUSH2 0xD9D DUP2 PUSH1 0x84 DUP5 ADD PUSH1 0x20 DUP9 ADD PUSH2 0xA11 JUMP JUMPDEST PUSH32 0x222F3E3C2F7376673E0000000000000000000000000000000000000000000000 PUSH1 0x84 SWAP3 SWAP1 SWAP2 ADD SWAP2 DUP3 ADD MSTORE PUSH1 0x8D ADD SWAP6 SWAP5 POP POP POP POP POP JUMP JUMPDEST PUSH1 0x0 DUP1 DUP4 CALLDATALOAD PUSH1 0x1E NOT DUP5 CALLDATASIZE SUB ADD DUP2 SLT PUSH2 0xDEB JUMPI PUSH1 0x0 DUP1 REVERT JUMPDEST DUP4 ADD DUP1 CALLDATALOAD SWAP2 POP PUSH8 0xFFFFFFFFFFFFFFFF DUP3 GT ISZERO PUSH2 0xE06 JUMPI PUSH1 0x0 DUP1 REVERT JUMPDEST PUSH1 0x20 ADD SWAP2 POP CALLDATASIZE DUP2 SWAP1 SUB DUP3 SGT ISZERO PUSH2 0x982 JUMPI PUSH1 0x0 DUP1 REVERT JUMPDEST PUSH4 0x4E487B71 PUSH1 0xE0 SHL PUSH1 0x0 MSTORE PUSH1 0x11 PUSH1 0x4 MSTORE PUSH1 0x24 PUSH1 0x0 REVERT JUMPDEST DUP1 DUP3 ADD DUP1 DUP3 GT ISZERO PUSH2 0x1C7 JUMPI PUSH2 0x1C7 PUSH2 0xE1B JUMP JUMPDEST PUSH1 0x0 DUP3 PUSH2 0xE61 JUMPI PUSH4 0x4E487B71 PUSH1 0xE0 SHL PUSH1 0x0 MSTORE PUSH1 0x12 PUSH1 0x4 MSTORE PUSH1 0x24 PUSH1 0x0 REVERT JUMPDEST POP DIV SWAP1 JUMP JUMPDEST DUP1 DUP3 MUL DUP2 ISZERO DUP3 DUP3 DIV DUP5 EQ OR PUSH2 0x1C7 JUMPI PUSH2 0x1C7 PUSH2 0xE1B JUMP JUMPDEST DUP2 DUP2 SUB DUP2 DUP2 GT ISZERO PUSH2 0x1C7 JUMPI PUSH2 0x1C7 PUSH2 0xE1B JUMP JUMPDEST PUSH1 0x0 DUP2 MSTORE PUSH1 0x0 DUP3 MLOAD PUSH2 0xEA9 DUP2 PUSH1 0x1 DUP6 ADD PUSH1 0x20 DUP8 ADD PUSH2 0xA11 JUMP JUMPDEST SWAP2 SWAP1 SWAP2 ADD PUSH1 0x1 ADD SWAP3 SWAP2 POP POP JUMP JUMPDEST PUSH32 0x600B5981380380925939F3000000000000000000000000000000000000000000 DUP2 MSTORE PUSH1 0x0 DUP3 MLOAD PUSH2 0xEEE DUP2 PUSH1 0xB DUP6 ADD PUSH1 0x20 DUP8 ADD PUSH2 0xA11 JUMP JUMPDEST SWAP2 SWAP1 SWAP2 ADD PUSH1 0xB ADD SWAP3 SWAP2 POP POP JUMP INVALID COINBASE TIMESTAMP NUMBER PREVRANDAO GASLIMIT CHAINID SELFBALANCE BASEFEE BLOBHASH BLOBBASEFEE 0x4B 0x4C 0x4D 0x4E 0x4F POP MLOAD MSTORE MSTORE8 SLOAD SSTORE JUMP JUMPI PC MSIZE GAS PUSH2 0x6263 PUSH5 0x6566676869 PUSH11 0x6B6C6D6E6F707172737475 PUSH23 0x7778797A303132333435363738392B2FA2646970667358 0x22 SLT KECCAK256 0xBC 0xD9 DUP16 0x26 0x29 0xB1 0x4C RETURN 0x28 LOG4 MCOPY RETURNDATACOPY 0xC1 CALLDATACOPY BALANCE 0xC9 RETURN 0xC6 SWAP1 0xFC SWAP8 SUB PUSH11 0xB401FA8D787B84D3CF6473 PUSH16 0x6C634300081800330000000000000000 "
        },
        "methodIdentifiers": {
          "addSignature(bytes[])": "02bba892",
          "addSignatures(bytes[][])": "7140c050",
          "getSignatureCount(address)": "6c7d13df",
          "signaturePath(address,uint256)": "80046e2b",
          "svg(address,uint256)": "c25a44d3",
          "svg(address,uint256,string,string)": "bcbf328c",
          "uri(address,uint256)": "28205a93",
          "uri(address,uint256,string,string)": "83d3872a"
        }
      }
    }
  }
}