{
  "_format": "hh-sol-artifact-1",
  "contractName": "SignatureRepository",
  "sourceName": "contracts/SignatureRepository.sol",
  "abi": [
    {
      "inputs": [],
      "name": "EmptySignatureData",
      "type": "error"
    },
    {
      "inputs": [],
      "name": "InvalidSignatureIndex",
      "type": "error"
    },
    {
      "inputs": [],
      "name": "InvalidStorageAddress",
      "type": "error"
    },
    {
      "anonymous": false,
      "inputs": [
        {
          "indexed": true,
          "internalType": "address",
          "name": "signer",
          "type": "address"
        },
        {
          "indexed": false,
          "internalType": "uint256",
          "name": "index",
          "type": "uint256"
        }
      ],
      "name": "NewSignature",
      "type": "event"
    },
    {
      "inputs": [
        {
          "internalType": "bytes[]",
          "name": "data",
          "type": "bytes[]"
        }
      ],
      "name": "addSignature",
      "outputs": [],
      "stateMutability": "nonpayable",
      "type": "function"
    },
    {
      "inputs": [
        {
          "internalType": "bytes[][]",
          "name": "data",
          "type": "bytes[][]"
        }
      ],
      "name": "addSignatures",
      "outputs": [],
      "stateMutability": "nonpayable",
      "type": "function"
    },
    {
      "inputs": [
        {
          "internalType": "address",
          "name": "signer",
          "type": "address"
        }
      ],
      "name": "getSignatureCount",
      "outputs": [
        {
          "internalType": "uint256",
          "name": "count",
          "type": "uint256"
        }
      ],
      "stateMutability": "view",
      "type": "function"
    },
    {
      "inputs": [
        {
          "internalType": "address",
          "name": "signer",
          "type": "address"
        },
        {
          "internalType": "uint256",
          "name": "index",
          "type": "uint256"
        }
      ],
      "name": "signaturePath",
      "outputs": [
        {
          "internalType": "string",
          "name": "",
          "type": "string"
        }
      ],
      "stateMutability": "view",
      "type": "function"
    },
    {
      "inputs": [
        {
          "internalType": "address",
          "name": "signer",
          "type": "address"
        },
        {
          "internalType": "uint256",
          "name": "index",
          "type": "uint256"
        },
        {
          "internalType": "string",
          "name": "color",
          "type": "string"
        },
        {
          "internalType": "string",
          "name": "width",
          "type": "string"
        }
      ],
      "name": "svg",
      "outputs": [
        {
          "internalType": "string",
          "name": "",
          "type": "string"
        }
      ],
      "stateMutability": "view",
      "type": "function"
    },
    {
      "inputs": [
        {
          "internalType": "address",
          "name": "signer",
          "type": "address"
        },
        {
          "internalType": "uint256",
          "name": "index",
          "type": "uint256"
        }
      ],
      "name": "svg",
      "outputs": [
        {
          "internalType": "string",
          "name": "",
          "type": "string"
        }
      ],
      "stateMutability": "view",
      "type": "function"
    },
    {
      "inputs": [
        {
          "internalType": "address",
          "name": "signer",
          "type": "address"
        },
        {
          "internalType": "uint256",
          "name": "index",
          "type": "uint256"
        }
      ],
      "name": "uri",
      "outputs": [
        {
          "internalType": "string",
          "name": "",
          "type": "string"
        }
      ],
      "stateMutability": "view",
      "type": "function"
    },
    {
      "inputs": [
        {
          "internalType": "address",
          "name": "signer",
          "type": "address"
        },
        {
          "internalType": "uint256",
          "name": "index",
          "type": "uint256"
        },
        {
          "internalType": "string",
          "name": "color",
          "type": "string"
        },
        {
          "internalType": "string",
          "name": "width",
          "type": "string"
        }
      ],
      "name": "uri",
      "outputs": [
        {
          "internalType": "string",
          "name": "",
          "type": "string"
        }
      ],
      "stateMutability": "view",
      "type": "function"
    }
  ],
  "bytecode": "0x608060405234801561001057600080fd5b50610f71806100206000396000f3fe608060405234801561001057600080fd5b50600436106100885760003560e01c806380046e2b1161005b57806380046e2b1461011557806383d3872a14610128578063bcbf328c1461013b578063c25a44d31461014e57600080fd5b806302bba8921461008d57806328205a93146100a25780636c7d13df146100cb5780637140c05014610102575b600080fd5b6100a061009b366004610989565b610161565b005b6100b56100b03660046109e7565b610191565b6040516100c29190610a35565b60405180910390f35b6100f46100d9366004610a68565b6001600160a01b031660009081526020819052604090205490565b6040519081526020016100c2565b6100a0610110366004610989565b6101cd565b6100b56101233660046109e7565b610279565b6100b5610136366004610b26565b610446565b6100b5610149366004610b26565b610480565b6100b561015c3660046109e7565b6104a0565b600081900361018357604051630f3f6c9b60e21b815260040160405180910390fd5b61018d828261051f565b5050565b60606101a56101a084846104a0565b6106ca565b6040516020016101b59190610ba4565b60405160208183030381529060405290505b92915050565b60008190036101ef57604051630f3f6c9b60e21b815260040160405180910390fd5b60005b818110156102745782828281811061020c5761020c610be9565b905060200281019061021e9190610bff565b905060000361024057604051630f3f6c9b60e21b815260040160405180910390fd5b61026c83838381811061025557610255610be9565b90506020028101906102679190610bff565b61051f565b6001016101f2565b505050565b6001600160a01b03821660009081526020819052604090205460609082106102cd576040517fbfb572b300000000000000000000000000000000000000000000000000000000815260040160405180910390fd5b6001600160a01b038316600090815260208190526040812080546060929190859081106102fc576102fc610be9565b600091825260208220015491505b8181101561043c576001600160a01b038616600090815260208190526040812080548790811061033c5761033c610be9565b90600052602060002001600001828154811061035a5761035a610be9565b6000918252602090912001546001600160a01b03169050806103a8576040517ff359d7f700000000000000000000000000000000000000000000000000000000815260040160405180910390fd5b6001600160a01b03871660009081526020819052604090208054859161041091899081106103d8576103d8610be9565b9060005260206000200160000184815481106103f6576103f6610be9565b6000918252602090912001546001600160a01b031661082a565b604051602001610421929190610c49565b60408051601f1981840301815291905293505060010161030a565b5090949350505050565b60606104576101a086868686610480565b6040516020016104679190610ba4565b6040516020818303038152906040529050949350505050565b6060828261048e8787610279565b60405160200161046793929190610c78565b606061051883836040518060400160405280600581526020017f626c61636b0000000000000000000000000000000000000000000000000000008152506040518060400160405280600381526020017f3470780000000000000000000000000000000000000000000000000000000000815250610480565b9392505050565b600081900361054157604051630f3f6c9b60e21b815260040160405180910390fd5b3360009081526020819052604081208054600181018255908252905b8281101561068f5783838281811061057757610577610be9565b90506020028101906105899190610dd4565b90506000036105ab57604051630f3f6c9b60e21b815260040160405180910390fd5b600061060e8585848181106105c2576105c2610be9565b90506020028101906105d49190610dd4565b8080601f01602080910402602001604051908101604052809392919081815260200183838082843760009201919091525061084b92505050565b3360009081526020819052604090208054919250908490811061063357610633610be9565b60009182526020808320909101805460018181018355918452919092200180546001600160a01b039093167fffffffffffffffffffffffff0000000000000000000000000000000000000000909316929092179091550161055d565b5060405181815233907ffb79a88b762f56bcd11bcc12554f81106e62770680055da0027dc8fe0694e96c9060200160405180910390a2505050565b606081516000036106e957505060408051602081019091526000815290565b6000604051806060016040528060408152602001610efc60409139905060006003845160026107189190610e31565b6107229190610e44565b61072d906004610e66565b67ffffffffffffffff81111561074557610745610a83565b6040519080825280601f01601f19166020018201604052801561076f576020820181803683370190505b50905060018201602082018586518701602081018051600082525b828410156107e5576003840193508351603f8160121c168701518653600186019550603f81600c1c168701518653600186019550603f8160061c168701518653600186019550603f811687015186535060018501945061078a565b905250508551600390066001811461080457600281146108175761081f565b603d6001830353603d600283035361081f565b603d60018303535b509195945050505050565b60606101c7826001610846816001600160a01b0384163b610e7d565b61091a565b6000808260405160200161085f9190610e90565b60405160208183030381529060405290506000816040516020016108839190610eb6565b60405160208183030381529060405290508051602082016000f092506001600160a01b038316610913576040517f08c379a000000000000000000000000000000000000000000000000000000000815260206004820152601160248201527f4445504c4f594d454e545f4641494c4544000000000000000000000000000000604482015260640160405180910390fd5b5050919050565b60408051603f8301601f19168101909152818152818360208301863c9392505050565b60008083601f84011261094f57600080fd5b50813567ffffffffffffffff81111561096757600080fd5b6020830191508360208260051b850101111561098257600080fd5b9250929050565b6000806020838503121561099c57600080fd5b823567ffffffffffffffff8111156109b357600080fd5b6109bf8582860161093d565b90969095509350505050565b80356001600160a01b03811681146109e257600080fd5b919050565b600080604083850312156109fa57600080fd5b610a03836109cb565b946020939093013593505050565b60005b83811015610a2c578181015183820152602001610a14565b50506000910152565b6020815260008251806020840152610a54816040850160208701610a11565b601f01601f19169190910160400192915050565b600060208284031215610a7a57600080fd5b610518826109cb565b634e487b7160e01b600052604160045260246000fd5b600082601f830112610aaa57600080fd5b813567ffffffffffffffff80821115610ac557610ac5610a83565b604051601f8301601f19908116603f01168101908282118183101715610aed57610aed610a83565b81604052838152866020858801011115610b0657600080fd5b836020870160208301376000602085830101528094505050505092915050565b60008060008060808587031215610b3c57600080fd5b610b45856109cb565b935060208501359250604085013567ffffffffffffffff80821115610b6957600080fd5b610b7588838901610a99565b93506060870135915080821115610b8b57600080fd5b50610b9887828801610a99565b91505092959194509250565b7f646174613a696d6167652f7376672b786d6c3b6261736536342c000000000000815260008251610bdc81601a850160208701610a11565b91909101601a0192915050565b634e487b7160e01b600052603260045260246000fd5b6000808335601e19843603018112610c1657600080fd5b83018035915067ffffffffffffffff821115610c3157600080fd5b6020019150600581901b360382131561098257600080fd5b60008351610c5b818460208801610a11565b835190830190610c6f818360208801610a11565b01949350505050565b7f3c7376672076696577426f783d2230203020353132203531322220786d6c6e7381527f3d22687474703a2f2f7777772e77332e6f72672f323030302f737667223e3c7060208201527f617468207374726f6b653d220000000000000000000000000000000000000000604082015260008451610cfc81604c850160208901610a11565b7f22207374726f6b652d77696474683d2200000000000000000000000000000000604c918401918201528451610d3981605c840160208901610a11565b7f22207374726f6b652d6c696e656361703d22726f756e64222066696c6c3d226e605c92909101918201527f6f6e652220643d22000000000000000000000000000000000000000000000000607c8201528351610d9d816084840160208801610a11565b7f222f3e3c2f7376673e000000000000000000000000000000000000000000000060849290910191820152608d0195945050505050565b6000808335601e19843603018112610deb57600080fd5b83018035915067ffffffffffffffff821115610e0657600080fd5b60200191503681900382131561098257600080fd5b634e487b7160e01b600052601160045260246000fd5b808201808211156101c7576101c7610e1b565b600082610e6157634e487b7160e01b600052601260045260246000fd5b500490565b80820281158282048414176101c7576101c7610e1b565b818103818111156101c7576101c7610e1b565b6000815260008251610ea9816001850160208701610a11565b9190910160010192915050565b7f600b5981380380925939f3000000000000000000000000000000000000000000815260008251610eee81600b850160208701610a11565b91909101600b019291505056fe4142434445464748494a4b4c4d4e4f505152535455565758595a6162636465666768696a6b6c6d6e6f707172737475767778797a303132333435363738392b2fa2646970667358221220bcd98f2629b14cf328a45e3ec13731c9f3c690fc97036ab401fa8d787b84d3cf64736f6c63430008180033",
  "linkReferences": {},
  "deployedLinkReferences": {}
}